{
  "_format": "hh3-artifact-1",
  "contractName": "MyToken",
  "sourceName": "contracts/MyToken.sol",
  "abi": [
    {
      "inputs": [
        {
          "internalType": "string",
          "name": "name_",
          "type": "string"
        },
        {
          "internalType": "string",
          "name": "symbol_",
          "type": "string"
        },
        {
          "internalType": "uint256",
          "name": "cap_",
          "type": "uint256"
        },
        {
          "internalType": "address",
          "name": "initialReceiver_",
          "type": "address"
        },
        {
          "internalType": "uint256",
          "name": "initialMint_",
          "type": "uint256"
        }
      ],
      "stateMutability": "nonpayable",
      "type": "constructor"
    },
    {
      "inputs": [],
      "name": "AccessControlBadConfirmation",
      "type": "error"
    },
    {
      "inputs": [
        {
          "internalType": "address",
          "name": "account",
          "type": "address"
        },
        {
          "internalType": "bytes32",
          "name": "neededRole",
          "type": "bytes32"
        }
      ],
      "name": "AccessControlUnauthorizedAccount",
      "type": "error"
    },
    {
      "inputs": [],
      "name": "CapExceeded",
      "type": "error"
    },
    {
      "inputs": [
        {
          "internalType": "uint256",
          "name": "increasedSupply",
          "type": "uint256"
        },
        {
          "internalType": "uint256",
          "name": "cap",
          "type": "uint256"
        }
      ],
      "name": "ERC20ExceededCap",
      "type": "error"
    },
    {
      "inputs": [
        {
          "internalType": "address",
          "name": "spender",
          "type": "address"
        },
        {
          "internalType": "uint256",
          "name": "allowance",
          "type": "uint256"
        },
        {
          "internalType": "uint256",
          "name": "needed",
          "type": "uint256"
        }
      ],
      "name": "ERC20InsufficientAllowance",
      "type": "error"
    },
    {
      "inputs": [
        {
          "internalType": "address",
          "name": "sender",
          "type": "address"
        },
        {
          "internalType": "uint256",
          "name": "balance",
          "type": "uint256"
        },
        {
          "internalType": "uint256",
          "name": "needed",
          "type": "uint256"
        }
      ],
      "name": "ERC20InsufficientBalance",
      "type": "error"
    },
    {
      "inputs": [
        {
          "internalType": "address",
          "name": "approver",
          "type": "address"
        }
      ],
      "name": "ERC20InvalidApprover",
      "type": "error"
    },
    {
      "inputs": [
        {
          "internalType": "uint256",
          "name": "cap",
          "type": "uint256"
        }
      ],
      "name": "ERC20InvalidCap",
      "type": "error"
    },
    {
      "inputs": [
        {
          "internalType": "address",
          "name": "receiver",
          "type": "address"
        }
      ],
      "name": "ERC20InvalidReceiver",
      "type": "error"
    },
    {
      "inputs": [
        {
          "internalType": "address",
          "name": "sender",
          "type": "address"
        }
      ],
      "name": "ERC20InvalidSender",
      "type": "error"
    },
    {
      "inputs": [
        {
          "internalType": "address",
          "name": "spender",
          "type": "address"
        }
      ],
      "name": "ERC20InvalidSpender",
      "type": "error"
    },
    {
      "inputs": [],
      "name": "EnforcedPause",
      "type": "error"
    },
    {
      "inputs": [],
      "name": "ExpectedPause",
      "type": "error"
    },
    {
      "inputs": [],
      "name": "LengthMismatch",
      "type": "error"
    },
    {
      "anonymous": false,
      "inputs": [
        {
          "indexed": true,
          "internalType": "address",
          "name": "owner",
          "type": "address"
        },
        {
          "indexed": true,
          "internalType": "address",
          "name": "spender",
          "type": "address"
        },
        {
          "indexed": false,
          "internalType": "uint256",
          "name": "value",
          "type": "uint256"
        }
      ],
      "name": "Approval",
      "type": "event"
    },
    {
      "anonymous": false,
      "inputs": [
        {
          "indexed": false,
          "internalType": "address",
          "name": "account",
          "type": "address"
        }
      ],
      "name": "Paused",
      "type": "event"
    },
    {
      "anonymous": false,
      "inputs": [
        {
          "indexed": true,
          "internalType": "bytes32",
          "name": "role",
          "type": "bytes32"
        },
        {
          "indexed": true,
          "internalType": "bytes32",
          "name": "previousAdminRole",
          "type": "bytes32"
        },
        {
          "indexed": true,
          "internalType": "bytes32",
          "name": "newAdminRole",
          "type": "bytes32"
        }
      ],
      "name": "RoleAdminChanged",
      "type": "event"
    },
    {
      "anonymous": false,
      "inputs": [
        {
          "indexed": true,
          "internalType": "bytes32",
          "name": "role",
          "type": "bytes32"
        },
        {
          "indexed": true,
          "internalType": "address",
          "name": "account",
          "type": "address"
        },
        {
          "indexed": true,
          "internalType": "address",
          "name": "sender",
          "type": "address"
        }
      ],
      "name": "RoleGranted",
      "type": "event"
    },
    {
      "anonymous": false,
      "inputs": [
        {
          "indexed": true,
          "internalType": "bytes32",
          "name": "role",
          "type": "bytes32"
        },
        {
          "indexed": true,
          "internalType": "address",
          "name": "account",
          "type": "address"
        },
        {
          "indexed": true,
          "internalType": "address",
          "name": "sender",
          "type": "address"
        }
      ],
      "name": "RoleRevoked",
      "type": "event"
    },
    {
      "anonymous": false,
      "inputs": [
        {
          "indexed": true,
          "internalType": "address",
          "name": "from",
          "type": "address"
        },
        {
          "indexed": true,
          "internalType": "address",
          "name": "to",
          "type": "address"
        },
        {
          "indexed": false,
          "internalType": "uint256",
          "name": "value",
          "type": "uint256"
        }
      ],
      "name": "Transfer",
      "type": "event"
    },
    {
      "anonymous": false,
      "inputs": [
        {
          "indexed": false,
          "internalType": "address",
          "name": "account",
          "type": "address"
        }
      ],
      "name": "Unpaused",
      "type": "event"
    },
    {
      "inputs": [],
      "name": "DEFAULT_ADMIN_ROLE",
      "outputs": [
        {
          "internalType": "bytes32",
          "name": "",
          "type": "bytes32"
        }
      ],
      "stateMutability": "view",
      "type": "function"
    },
    {
      "inputs": [],
      "name": "MINTER_ROLE",
      "outputs": [
        {
          "internalType": "bytes32",
          "name": "",
          "type": "bytes32"
        }
      ],
      "stateMutability": "view",
      "type": "function"
    },
    {
      "inputs": [],
      "name": "PAUSER_ROLE",
      "outputs": [
        {
          "internalType": "bytes32",
          "name": "",
          "type": "bytes32"
        }
      ],
      "stateMutability": "view",
      "type": "function"
    },
    {
      "inputs": [
        {
          "internalType": "address[]",
          "name": "to",
          "type": "address[]"
        },
        {
          "internalType": "uint256[]",
          "name": "amounts",
          "type": "uint256[]"
        }
      ],
      "name": "airdrop",
      "outputs": [],
      "stateMutability": "nonpayable",
      "type": "function"
    },
    {
      "inputs": [
        {
          "internalType": "address",
          "name": "owner",
          "type": "address"
        },
        {
          "internalType": "address",
          "name": "spender",
          "type": "address"
        }
      ],
      "name": "allowance",
      "outputs": [
        {
          "internalType": "uint256",
          "name": "",
          "type": "uint256"
        }
      ],
      "stateMutability": "view",
      "type": "function"
    },
    {
      "inputs": [
        {
          "internalType": "address",
          "name": "spender",
          "type": "address"
        },
        {
          "internalType": "uint256",
          "name": "value",
          "type": "uint256"
        }
      ],
      "name": "approve",
      "outputs": [
        {
          "internalType": "bool",
          "name": "",
          "type": "bool"
        }
      ],
      "stateMutability": "nonpayable",
      "type": "function"
    },
    {
      "inputs": [
        {
          "internalType": "address",
          "name": "account",
          "type": "address"
        }
      ],
      "name": "balanceOf",
      "outputs": [
        {
          "internalType": "uint256",
          "name": "",
          "type": "uint256"
        }
      ],
      "stateMutability": "view",
      "type": "function"
    },
    {
      "inputs": [
        {
          "internalType": "uint256",
          "name": "value",
          "type": "uint256"
        }
      ],
      "name": "burn",
      "outputs": [],
      "stateMutability": "nonpayable",
      "type": "function"
    },
    {
      "inputs": [
        {
          "internalType": "address",
          "name": "account",
          "type": "address"
        },
        {
          "internalType": "uint256",
          "name": "value",
          "type": "uint256"
        }
      ],
      "name": "burnFrom",
      "outputs": [],
      "stateMutability": "nonpayable",
      "type": "function"
    },
    {
      "inputs": [],
      "name": "cap",
      "outputs": [
        {
          "internalType": "uint256",
          "name": "",
          "type": "uint256"
        }
      ],
      "stateMutability": "view",
      "type": "function"
    },
    {
      "inputs": [],
      "name": "decimals",
      "outputs": [
        {
          "internalType": "uint8",
          "name": "",
          "type": "uint8"
        }
      ],
      "stateMutability": "view",
      "type": "function"
    },
    {
      "inputs": [
        {
          "internalType": "bytes32",
          "name": "role",
          "type": "bytes32"
        }
      ],
      "name": "getRoleAdmin",
      "outputs": [
        {
          "internalType": "bytes32",
          "name": "",
          "type": "bytes32"
        }
      ],
      "stateMutability": "view",
      "type": "function"
    },
    {
      "inputs": [
        {
          "internalType": "bytes32",
          "name": "role",
          "type": "bytes32"
        },
        {
          "internalType": "address",
          "name": "account",
          "type": "address"
        }
      ],
      "name": "grantRole",
      "outputs": [],
      "stateMutability": "nonpayable",
      "type": "function"
    },
    {
      "inputs": [
        {
          "internalType": "bytes32",
          "name": "role",
          "type": "bytes32"
        },
        {
          "internalType": "address",
          "name": "account",
          "type": "address"
        }
      ],
      "name": "hasRole",
      "outputs": [
        {
          "internalType": "bool",
          "name": "",
          "type": "bool"
        }
      ],
      "stateMutability": "view",
      "type": "function"
    },
    {
      "inputs": [
        {
          "internalType": "address",
          "name": "to",
          "type": "address"
        },
        {
          "internalType": "uint256",
          "name": "amount",
          "type": "uint256"
        }
      ],
      "name": "mint",
      "outputs": [],
      "stateMutability": "nonpayable",
      "type": "function"
    },
    {
      "inputs": [],
      "name": "name",
      "outputs": [
        {
          "internalType": "string",
          "name": "",
          "type": "string"
        }
      ],
      "stateMutability": "view",
      "type": "function"
    },
    {
      "inputs": [],
      "name": "pause",
      "outputs": [],
      "stateMutability": "nonpayable",
      "type": "function"
    },
    {
      "inputs": [],
      "name": "paused",
      "outputs": [
        {
          "internalType": "bool",
          "name": "",
          "type": "bool"
        }
      ],
      "stateMutability": "view",
      "type": "function"
    },
    {
      "inputs": [
        {
          "internalType": "bytes32",
          "name": "role",
          "type": "bytes32"
        },
        {
          "internalType": "address",
          "name": "callerConfirmation",
          "type": "address"
        }
      ],
      "name": "renounceRole",
      "outputs": [],
      "stateMutability": "nonpayable",
      "type": "function"
    },
    {
      "inputs": [
        {
          "internalType": "bytes32",
          "name": "role",
          "type": "bytes32"
        },
        {
          "internalType": "address",
          "name": "account",
          "type": "address"
        }
      ],
      "name": "revokeRole",
      "outputs": [],
      "stateMutability": "nonpayable",
      "type": "function"
    },
    {
      "inputs": [
        {
          "internalType": "bytes4",
          "name": "interfaceId",
          "type": "bytes4"
        }
      ],
      "name": "supportsInterface",
      "outputs": [
        {
          "internalType": "bool",
          "name": "",
          "type": "bool"
        }
      ],
      "stateMutability": "view",
      "type": "function"
    },
    {
      "inputs": [],
      "name": "symbol",
      "outputs": [
        {
          "internalType": "string",
          "name": "",
          "type": "string"
        }
      ],
      "stateMutability": "view",
      "type": "function"
    },
    {
      "inputs": [],
      "name": "totalSupply",
      "outputs": [
        {
          "internalType": "uint256",
          "name": "",
          "type": "uint256"
        }
      ],
      "stateMutability": "view",
      "type": "function"
    },
    {
      "inputs": [
        {
          "internalType": "address",
          "name": "to",
          "type": "address"
        },
        {
          "internalType": "uint256",
          "name": "value",
          "type": "uint256"
        }
      ],
      "name": "transfer",
      "outputs": [
        {
          "internalType": "bool",
          "name": "",
          "type": "bool"
        }
      ],
      "stateMutability": "nonpayable",
      "type": "function"
    },
    {
      "inputs": [
        {
          "internalType": "address",
          "name": "from",
          "type": "address"
        },
        {
          "internalType": "address",
          "name": "to",
          "type": "address"
        },
        {
          "internalType": "uint256",
          "name": "value",
          "type": "uint256"
        }
      ],
      "name": "transferFrom",
      "outputs": [
        {
          "internalType": "bool",
          "name": "",
          "type": "bool"
        }
      ],
      "stateMutability": "nonpayable",
      "type": "function"
    },
    {
      "inputs": [],
      "name": "unpause",
      "outputs": [],
      "stateMutability": "nonpayable",
      "type": "function"
    }
  ],
  "bytecode": "0x60a060405234801562000010575f80fd5b506040516200177038038062001770833981016040819052620000339162000495565b8285856003620000448382620005b1565b506004620000538282620005b1565b505050805f036200007e5760405163392e1e2760e01b81525f60048201526024015b60405180910390fd5b6080526200008d5f33620000ff565b50620000ba7f9f2df0fed2c77648de5860a4cc508cd0818c85b8b8a1ab4ceeef8d981c8956a633620000ff565b50620000e77f65d7a28e3265b37a6474929f336521b332c1681b933f6cb9f3376673440d862a33620000ff565b50620000f48282620001af565b50505050506200069d565b5f8281526006602090815260408083206001600160a01b038516845290915281205460ff16620001a6575f8381526006602090815260408083206001600160a01b03861684529091529020805460ff191660011790556200015d3390565b6001600160a01b0316826001600160a01b0316847f2f8788117e7eff1d82e926ec794901d17c78024a50270940304540a733656f0d60405160405180910390a4506001620001a9565b505f5b92915050565b6001600160a01b038216620001da5760405163ec442f0560e01b81525f600482015260240162000075565b620001e75f8383620001eb565b5050565b620001f8838383620001fd565b505050565b6200020762000214565b620001f88383836200023b565b60055460ff1615620002395760405163d93c066560e01b815260040160405180910390fd5b565b62000248838383620002a5565b6001600160a01b038316620001f8575f6200026260805190565b90505f6200026f60025490565b9050818111156200029e5760405163279e7e1560e21b8152600481018290526024810183905260440162000075565b5050505050565b6001600160a01b038316620002d3578060025f828254620002c791906200067d565b90915550620003459050565b6001600160a01b0383165f9081526020819052604090205481811015620003275760405163391434e360e21b81526001600160a01b0385166004820152602481018290526044810183905260640162000075565b6001600160a01b0384165f9081526020819052604090209082900390555b6001600160a01b038216620003635760028054829003905562000381565b6001600160a01b0382165f9081526020819052604090208054820190555b816001600160a01b0316836001600160a01b03167fddf252ad1be2c89b69c2b068fc378daa952ba7f163c4a11628f55a4df523b3ef83604051620003c791815260200190565b60405180910390a3505050565b634e487b7160e01b5f52604160045260245ffd5b5f82601f830112620003f8575f80fd5b81516001600160401b0380821115620004155762000415620003d4565b604051601f8301601f19908116603f01168101908282118183101715620004405762000440620003d4565b81604052838152602092508660208588010111156200045d575f80fd5b5f91505b8382101562000480578582018301518183018401529082019062000461565b5f602085830101528094505050505092915050565b5f805f805f60a08688031215620004aa575f80fd5b85516001600160401b0380821115620004c1575f80fd5b620004cf89838a01620003e8565b96506020880151915080821115620004e5575f80fd5b50620004f488828901620003e8565b60408801516060890151919650945090506001600160a01b03811681146200051a575f80fd5b80925050608086015190509295509295909350565b600181811c908216806200054457607f821691505b6020821081036200056357634e487b7160e01b5f52602260045260245ffd5b50919050565b601f821115620001f857805f5260205f20601f840160051c81016020851015620005905750805b601f840160051c820191505b818110156200029e575f81556001016200059c565b81516001600160401b03811115620005cd57620005cd620003d4565b620005e581620005de84546200052f565b8462000569565b602080601f8311600181146200061b575f8415620006035750858301515b5f19600386901b1c1916600185901b17855562000675565b5f85815260208120601f198616915b828110156200064b578886015182559484019460019091019084016200062a565b50858210156200066957878501515f19600388901b60f8161c191681555b505060018460011b0185555b505050505050565b80820180821115620001a957634e487b7160e01b5f52601160045260245ffd5b6080516110a5620006cb5f395f81816102480152818161059f0152818161068e0152610c6501526110a55ff3fe608060405234801561000f575f80fd5b5060043610610187575f3560e01c80635c975abb116100d957806395d89b4111610093578063d53913931161006e578063d539139314610343578063d547741f1461036a578063dd62ed3e1461037d578063e63ab1e9146103b5575f80fd5b806395d89b4114610321578063a217fddf14610329578063a9059cbb14610330575f80fd5b80635c975abb146102ad57806367243482146102b857806370a08231146102cb57806379cc6790146102f35780638456cb591461030657806391d148541461030e575f80fd5b80632f2ff15d1161014457806336568abe1161011f57806336568abe1461026c5780633f4ba83a1461027f57806340c10f191461028757806342966c681461029a575f80fd5b80632f2ff15d14610222578063313ce56714610237578063355274ea14610246575f80fd5b806301ffc9a71461018b57806306fdde03146101b3578063095ea7b3146101c857806318160ddd146101db57806323b872dd146101ed578063248a9ca314610200575b5f80fd5b61019e610199366004610ddd565b6103dc565b60405190151581526020015b60405180910390f35b6101bb610412565b6040516101aa9190610e0b565b61019e6101d6366004610e72565b6104a2565b6002545b6040519081526020016101aa565b61019e6101fb366004610e9a565b6104b9565b6101df61020e366004610ed3565b5f9081526006602052604090206001015490565b610235610230366004610eea565b6104dc565b005b604051601281526020016101aa565b7f00000000000000000000000000000000000000000000000000000000000000006101df565b61023561027a366004610eea565b610506565b61023561053e565b610235610295366004610e72565b610573565b6102356102a8366004610ed3565b6105fb565b60055460ff1661019e565b6102356102c6366004610f5c565b610605565b6101df6102d9366004610fc3565b6001600160a01b03165f9081526020819052604090205490565b610235610301366004610e72565b610743565b61023561075c565b61019e61031c366004610eea565b61078e565b6101bb6107b8565b6101df5f81565b61019e61033e366004610e72565b6107c7565b6101df7f9f2df0fed2c77648de5860a4cc508cd0818c85b8b8a1ab4ceeef8d981c8956a681565b610235610378366004610eea565b6107d4565b6101df61038b366004610fdc565b6001600160a01b039182165f90815260016020908152604080832093909416825291909152205490565b6101df7f65d7a28e3265b37a6474929f336521b332c1681b933f6cb9f3376673440d862a81565b5f6001600160e01b03198216637965db0b60e01b148061040c57506301ffc9a760e01b6001600160e01b03198316145b92915050565b60606003805461042190611004565b80601f016020809104026020016040519081016040528092919081815260200182805461044d90611004565b80156104985780601f1061046f57610100808354040283529160200191610498565b820191905f5260205f20905b81548152906001019060200180831161047b57829003601f168201915b5050505050905090565b5f336104af8185856107f8565b5060019392505050565b5f336104c6858285610805565b6104d1858585610880565b506001949350505050565b5f828152600660205260409020600101546104f6816108dd565b61050083836108e7565b50505050565b6001600160a01b038116331461052f5760405163334bd91960e11b815260040160405180910390fd5b6105398282610978565b505050565b7f65d7a28e3265b37a6474929f336521b332c1681b933f6cb9f3376673440d862a610568816108dd565b6105706109e3565b50565b7f9f2df0fed2c77648de5860a4cc508cd0818c85b8b8a1ab4ceeef8d981c8956a661059d816108dd565b7f0000000000000000000000000000000000000000000000000000000000000000826105c860025490565b6105d2919061103c565b11156105f15760405163a4875a4960e01b815260040160405180910390fd5b6105398383610a35565b6105703382610a69565b7f9f2df0fed2c77648de5860a4cc508cd0818c85b8b8a1ab4ceeef8d981c8956a661062f816108dd565b838214610652576040516001621398b960e31b0319815260040160405180910390fd5b5f805b8381101561068b5784848281811061066f5761066f61105b565b9050602002013582610681919061103c565b9150600101610655565b507f0000000000000000000000000000000000000000000000000000000000000000816106b760025490565b6106c1919061103c565b11156106e05760405163a4875a4960e01b815260040160405180910390fd5b5f5b8581101561073a576107328787838181106106ff576106ff61105b565b90506020020160208101906107149190610fc3565b8686848181106107265761072661105b565b90506020020135610a35565b6001016106e2565b50505050505050565b61074e823383610805565b6107588282610a69565b5050565b7f65d7a28e3265b37a6474929f336521b332c1681b933f6cb9f3376673440d862a610786816108dd565b610570610a9d565b5f9182526006602090815260408084206001600160a01b0393909316845291905290205460ff1690565b60606004805461042190611004565b5f336104af818585610880565b5f828152600660205260409020600101546107ee816108dd565b6105008383610978565b6105398383836001610ada565b6001600160a01b038381165f908152600160209081526040808320938616835292905220545f19811015610500578181101561087257604051637dc7a0d960e11b81526001600160a01b038416600482015260248101829052604481018390526064015b60405180910390fd5b61050084848484035f610ada565b6001600160a01b0383166108a957604051634b637e8f60e11b81525f6004820152602401610869565b6001600160a01b0382166108d25760405163ec442f0560e01b81525f6004820152602401610869565b610539838383610bac565b6105708133610bb7565b5f6108f2838361078e565b610971575f8381526006602090815260408083206001600160a01b03861684529091529020805460ff191660011790556109293390565b6001600160a01b0316826001600160a01b0316847f2f8788117e7eff1d82e926ec794901d17c78024a50270940304540a733656f0d60405160405180910390a450600161040c565b505f61040c565b5f610983838361078e565b15610971575f8381526006602090815260408083206001600160a01b0386168085529252808320805460ff1916905551339286917ff6391f5c32d9c69d2a47ea670b442974b53935d1edc7fd64eb21e047a839171b9190a450600161040c565b6109eb610bf0565b6005805460ff191690557f5db9ee0a495bf2e6ff9c91a7834c1ba4fdd244a5e8aa4e537bd38aeae4b073aa335b6040516001600160a01b03909116815260200160405180910390a1565b6001600160a01b038216610a5e5760405163ec442f0560e01b81525f6004820152602401610869565b6107585f8383610bac565b6001600160a01b038216610a9257604051634b637e8f60e11b81525f6004820152602401610869565b610758825f83610bac565b610aa5610c15565b6005805460ff191660011790557f62e78cea01bee320cd4e420270b5ea74000d11b0c9f74754ebdbfc544b05a258610a183390565b6001600160a01b038416610b035760405163e602df0560e01b81525f6004820152602401610869565b6001600160a01b038316610b2c57604051634a1406b160e11b81525f6004820152602401610869565b6001600160a01b038085165f908152600160209081526040808320938716835292905220829055801561050057826001600160a01b0316846001600160a01b03167f8c5be1e5ebec7d5bd14f71427d1e84f3dd0314c0f7b2291e5b200ac8c7c3b92584604051610b9e91815260200190565b60405180910390a350505050565b610539838383610c39565b610bc1828261078e565b6107585760405163e2517d3f60e01b81526001600160a01b038216600482015260248101839052604401610869565b60055460ff16610c1357604051638dfc202b60e01b815260040160405180910390fd5b565b60055460ff1615610c135760405163d93c066560e01b815260040160405180910390fd5b610c41610c15565b610539838383610c52838383610cb7565b6001600160a01b038316610539576002547f00000000000000000000000000000000000000000000000000000000000000009081811115610cb05760405163279e7e1560e21b81526004810182905260248101839052604401610869565b5050505050565b6001600160a01b038316610ce1578060025f828254610cd6919061103c565b90915550610d519050565b6001600160a01b0383165f9081526020819052604090205481811015610d335760405163391434e360e21b81526001600160a01b03851660048201526024810182905260448101839052606401610869565b6001600160a01b0384165f9081526020819052604090209082900390555b6001600160a01b038216610d6d57600280548290039055610d8b565b6001600160a01b0382165f9081526020819052604090208054820190555b816001600160a01b0316836001600160a01b03167fddf252ad1be2c89b69c2b068fc378daa952ba7f163c4a11628f55a4df523b3ef83604051610dd091815260200190565b60405180910390a3505050565b5f60208284031215610ded575f80fd5b81356001600160e01b031981168114610e04575f80fd5b9392505050565b5f602080835283518060208501525f5b81811015610e3757858101830151858201604001528201610e1b565b505f604082860101526040601f19601f8301168501019250505092915050565b80356001600160a01b0381168114610e6d575f80fd5b919050565b5f8060408385031215610e83575f80fd5b610e8c83610e57565b946020939093013593505050565b5f805f60608486031215610eac575f80fd5b610eb584610e57565b9250610ec360208501610e57565b9150604084013590509250925092565b5f60208284031215610ee3575f80fd5b5035919050565b5f8060408385031215610efb575f80fd5b82359150610f0b60208401610e57565b90509250929050565b5f8083601f840112610f24575f80fd5b50813567ffffffffffffffff811115610f3b575f80fd5b6020830191508360208260051b8501011115610f55575f80fd5b9250929050565b5f805f8060408587031215610f6f575f80fd5b843567ffffffffffffffff80821115610f86575f80fd5b610f9288838901610f14565b90965094506020870135915080821115610faa575f80fd5b50610fb787828801610f14565b95989497509550505050565b5f60208284031215610fd3575f80fd5b610e0482610e57565b5f8060408385031215610fed575f80fd5b610ff683610e57565b9150610f0b60208401610e57565b600181811c9082168061101857607f821691505b60208210810361103657634e487b7160e01b5f52602260045260245ffd5b50919050565b8082018082111561040c57634e487b7160e01b5f52601160045260245ffd5b634e487b7160e01b5f52603260045260245ffdfea2646970667358221220b2e0d3667df4c363988f896ecc740f51148a2ea31ea01461d9a4f6b81e3d909b64736f6c63430008180033",
  "linkReferences": {},
  "deployedLinkReferences": {},
  "immutableReferences": {
    "1164": [
      {
        "length": 32,
        "start": 584
      },
      {
        "length": 32,
        "start": 1439
      },
      {
        "length": 32,
        "start": 1678
      },
      {
        "length": 32,
        "start": 3173
      }
    ]
  },
  "inputSourceName": "project/contracts/MyToken.sol",
  "buildInfoId": "solc-0_8_24-076d420032ea157de13ec995ef716cdcb49be83a"
}